:020000040800F2
:1000000070170020E9410008590E00085B0E000837
:100010005F0E0008630E0008670E00080000000075
:100020000000000000000000000000006B0E00084F
:100030006D0E0008000000006F0E0008710E000831
:10004000034200080342000803420008034200087C
:10005000034200080342000803420008034200086C
:10006000034200080342000803420008034200085C
:10007000034200080342000803420008034200084C
:10008000034200080342000803420008034200083C
:10009000034200080342000803420008034200082C
:1000A000034200080342000803420008034200081C
:1000B000730E00088F0E0008034200080342000878
:1000C00003420008034200080342000803420008FC
:1000D00003420008910E0008930E00080342000836
:1000E00003420008034200080342000800F002F83F
:1000F00000F042F80AA090E8000C82448344AAF180
:100100000107DA4501D100F037F8AFF2090EBAE87D
:100110000F0013F0010F18BFFB1A43F0010318473B
:1001200084460000A4460000103A24BF78C878C175
:10013000FAD8520724BF30C830C144BF04680C60ED
:10014000704700000023002400250026103A28BF35
:1001500078C1FBD8520728BF30C148BF0B60704739
:10016000642904F05F81782904F0968100207047AB
:100170001FB51FBD10B510BD04F0C8FA1146FFF73A
:10018000F7FF00F0D1FB04F0E6FA03B4FFF7F2FF4B
:1001900003BC00F0B1FA00002DE9FF5F0446884679
:1001A000DFF8A893002700200390204601F074FD9B
:1001B000002870D013286FD0172802D01C286CD1CB
:1001C00092E0E348005D012848D12146E1A004F017
:1001D0001DF94FF4804101EB04210F3188B201F089
:1001E000D1FA82464FF4804101EB04210E3188B2EE
:1001F00001F0C8FA83464FF4804101EB04210D3130
:1002000088B201F0BFFA4FF4804101EB04210C31B8
:10021000029088B201F0B6FA5B46CDE900A0014633
:10022000D1A0029A04F0F2F84FF4804101EB0421CE
:10023000113188B201F0A6FA83464FF4804101EBF8
:100240000421103188B201F09DFA0BEB002A5146CF
:10025000CCA004F0DBF80220BD490855204601F08F
:1002600058FD051E3FDDB5F5006F01DD4FF400655B
:100270002A464946204601F004F806460023324645
:100280004946204600F055FF0746B7422BD020468E
:1002900001F027FA25E042E05BE05EE03946BEA0CF
:1002A00004F0B4F8204601F013FA039003980328F1
:1002B0000CDC012332464946204600F03AFF384420
:1002C00087B24FF47A7000F0A4FC0AE0B5A004F005
:1002D0009DF8204600F0DEFDB7A004F097F800BFBF
:1002E000FEE7B742DAD139E02146B8A004F08EF833
:1002F000204601F00EFD051E0ADDB5F5006F01DD9B
:100300004FF400652A464946204600F0BAFF0646EB
:10031000204600F0F7FE00208D4908551EE08C486D
:10032000005D38B942462146ADA004F06FF80120C7
:1003300087490855002342460121204600F0CAFDA6
:1003400030B92146B2A004F061F800208049085578
:1003500004E0204600F022FE00E000BF00BFBDE840
:10036000FF9F2DE9F04704468846DFF8E09100271B
:10037000BA46204601F090FC002872D013286ED0B7
:10038000172802D01C286BD14DE07148005D012870
:1003900006D121466FA004F039F802206C490855B7
:1003A000204601F0B6FC051E3CDDB5F5006F01DD11
:1003B0004FF400652A464946204600F062FF064693
:1003C000002332464946204600F0B3FE0746B742B6
:1003D00028D0204601F085F922E039466EA004F0CD
:1003E00015F8204601F074F98246BAF1030F0CDCCF
:1003F000012332464946204600F09BFE384487B22E
:100400004FF47A7000F005FC0AE066A003F0FEFFEE
:10041000204600F03FFD68A003F0F8FF00BFFEE7B4
:10042000B742DAD14AE0214668A003F0EFFF204648
:1004300001F06FFC051E0ADDB5F5006F01DD4FF41C
:1004400000652A464946204600F01BFF0646204626
:1004500000F058FE00203E4908552FE001E01AE068
:100460002BE03B48005D38B94246214670A003F0BE
:10047000CDFF012036490855002342460121204680
:1004800000F028FD30B9214675A003F0BFFF002021
:100490002F49085512E000F035FC79490968401AE7
:1004A000032809D377480288811C204600F09BFD71
:1004B00000F028FC7249086000E000BF00BFBDE802
:1004C000F0872DE9FE4305460E46DFF880800020C8
:1004D0000290284601F0E0FB18B3222832D12846CA
:1004E00001F017FC041E1BDDB4F5006F01DD4FF4B5
:1004F000006401A802AB224641460090284600F065
:100500008DFF0746BDF8040002AB3A464146009015
:10051000284600F0DBFE18B929465BA003F076FF01
:1005200010E0324629465FA003F070FF00233246F8
:100530000221284600F0CEFC18B9294648A003F055
:1005400065FF00BF00BFBDE8FE830000AB000020D8
:10055000380000200D0A2564203A20436F6E6E6536
:1005600063746564000000000D0A20506565722008
:100570004950203A2025642E25642E25642E2564BA
:10058000000000000D0A205065657220506F7274E3
:10059000203A202564000000726574203A25640D1D
:1005A0000A00000057696E646F7746756C6C2021F5
:1005B00021210D0A00000000536F636B6574204316
:1005C0006C6F7365202121210D0A00000D0A25643E
:1005D000203A20434C4F53455F5741495400000097
:1005E0000D0A2564203A204C6F6F702D4261636BB9
:1005F00020544350205365727665722053746172A3
:100600007465642E20706F7274203A202564000097
:100610000D0A2564203A204661696C20746F2063BE
:10062000726561746520736F636B65742E000000E2
:100630000D0A2564203A204C6F6F702D4261636B68
:100640002054435020436C69656E7420537461726A
:100650007465642E20706F72743A20256400000067
:10066000072564203A204661696C20746F2063720C
:100670006561746520736F636B65742E0000000004
:1006800048000020080000200707072564203A20C2
:1006900053797374656D20466174616C2045727284
:1006A0006F722E000D0A2564203A204C6F6F702D5A
:1006B0004261636B205544502053746172746564C9
:1006C0002E20706F7274203A2564000070B50446C5
:1006D0000D46204600F0F9FA70BD10B5044600F052
:1006E00003FB10BD01464FF0FF30704710B50446C4
:1006F000204600F0EAFA10BD00BFFEE710B500F09A
:10070000ABF910BDAD490868411CAC4A1160B0F5A9
:100710007A7F07D9002011460860A9480068401C6C
:10072000A749086070470EB54FF47A70ADF8040021
:100730000020ADF80000ADF80600ADF802006946F3
:100740004FF0804002F012FD01224721900703F094
:1007500010F90121880703F065F80122114690077E
:1007600003F07BF80EBD08B51320ADF800000320A0
:100770008DF8020010208DF803006946914801F0C1
:100780007BFF10218F4802F024F801218D4802F0F0
:1007900020F802218B4802F01CF818208DF8030085
:1007A0004FF40070ADF8000003208DF80200694698
:1007B000844801F061FF04208DF803000002ADF8C9
:1007C000000069467F4801F057FFE020ADF80000C7
:1007D00003208DF8020018208DF80300694679483F
:1007E00001F04AFF4FF44070ADF8000003208DF88F
:1007F000020010208DF803006946734801F03CFFA9
:100800004FF48071704801F0E4FF4FF400716E48BE
:1008100001F0E1FF0120ADF8000003208DF8020097
:1008200048208DF803006946674801F025FF08BDA0
:1008300008B54FF4C06001F073FB25208DF800006F
:1008400000208DF8020001208DF80300684601F0B9
:100850006CFB26208DF8000000208DF8020001209E
:100860008DF80300684601F060FB1C208DF8000045
:1008700001208DF8010000208DF8020001208DF884
:100880000300684601F051FB1C208DF80000012098
:100890008DF8010000208DF8020001208DF8030082
:1008A000684601F042FB00214FF0006001F06FFB51
:1008B00008BD10B502F02EF84FF4803002F04AF86F
:1008C00002F087F80446012C24D1102001F0AAFB85
:1008D000022001F093FB002002F0C1F8002002F09A
:1008E000D0F8A00202F0C4F84FF4E011200402F0A6
:1008F00099F8012002F0A2F800BF392002F04DF86B
:100900000028FAD0022002F09CF800BF02F0A2F802
:100910000828FBD10121084602F077F9012145F2B0
:100920001D0002F065F910BDFFF7C3FFFFF780FF60
:10093000FFF719FF00F0B0F9FFF7F5FE00F07EF9C0
:1009400000F072FEFFF7DAFE012000F097F91C4874
:1009500000681E4908601EA003F058FD29A003F09E
:1009600055FD31A003F052FD27E041F2883100200F
:10097000FFF712FC41F289310120FFF70DFC41F233
:100980008A310220FFF708FC41F28B310320FFF788
:1009900003FC41F28C310420FFF7E3FC40F6B83150
:1009A0000520FFF78EFD40F6B9310620FFF789FDDF
:1009B00040F6BA310720FFF784FDD6E7400000205B
:1009C0004400002000080140000C014048000020C5
:1009D0000D0A0D0A2D2D2D2D2D2D2D2D2D2D2D2DCD
:1009E0002D2D2D2D2D2D2D2D2D2D2D2D2D2D2D2D37
:1009F0002D2D2D2D2D2D2D2D2D2D2D2D2D2D2D2034
:100A00000D0A000054435020536572766572204CE5
:100A10006F6F706261636B207573696E6720573505
:100A20003230300D0A0000002D2D2D2D2D2D2D2DB5
:100A30002D2D2D2D2D2D2D2D2D2D2D2D2D2D2D2DE6
:100A40002D2D2D2D2D2D2D2D2D2D2D2D2D2D2D2DD6
:100A50002D2D2D20000000002DE9F04786B0002448
:100A600005E0AA48005DAA490855601CC4B2062CDE
:100A7000F7DBA8480078A6498871A6484178A448C1
:100A8000C171A4488178A2480172A248C178A048E7
:100A90004172A14800789E4988739F4841789C48DC
:100AA000C1739D4881789A4801749B48C1789848E1
:100AB00041749A48007896498872984841789448D9
:100AC000C17296488178924801739448C1789048E1
:100AD000417301F01FF88E480A3000F0B2FF8C48D5
:100AE0000E3000F09BFF8A48801D01F02EF88C48E4
:100AF0000078874988758B4800788B4988708948C9
:100B000041788948C1708748817887480171854854
:100B1000C17885484171854800888349088041F241
:100B2000707001F065F8032001F06DF8804981488C
:100B300000F09EFE80A003F069FC8BA003F066FC31
:100B400093A003F063FC9CA003F060FC0E2000F077
:100B500019FE05460D2000F015FE06460C2000F09B
:100B600011FE07460B2000F00DFE80460A2000F023
:100B700009FE8146092000F005FE824643464A46AA
:100B8000514698A0CDE90076029503F03FFC04A8F9
:100B900000F077FF9DF8130000909DF812309DF84B
:100BA00011209DF8101099A003F030FC04A800F06B
:100BB000F2FF9DF8130000909DF812309DF811206F
:100BC0009DF8101096A003F021FC04A800F0D0FFBF
:100BD0009DF8130000909DF812309DF811209DF8AB
:100BE000101094A003F012FC06B0BDE8F0870021BD
:100BF0000CE0002206E000BF00BF00BF00BF00BF46
:100C0000531CDAB2052AF6DB4B1CD9B28142F0DB69
:100C1000704730B5044600250DE0FA20FFF7E7FFE6
:100C2000FA20FFF7E4FFFA20FFF7E1FFFA20FFF7D1
:100C3000DEFF681C85B2A542EFDB30BD10B54FF476
:100C40008071814801F0C7FD0220FFF7D0FF4FF40B
:100C500080717D4801F0BDFD9620FFF7DAFF10BDE1
:100C600010B50446012C04D10121784801F0B3FDF0
:100C700003E00121754801F0ACFD10BD10B504463C
:100C8000012C04D10221714801F0A5FD03E00221ED
:100C90006E4801F09EFD10BD1FB54FF4E13000908D
:100CA0000020ADF80400ADF80600ADF80800ADF87E
:100CB0000C000C20ADF80A006946654803F0D3F833
:100CC0000121634803F05BF91FBD10B50446E1B292
:100CD0005F4803F0C1F900BF80215D4803F02AFAA4
:100CE0000028F9D0204610BD10B500BF202158487B
:100CF00003F020FA0028F9D0554803F0B1F9044672
:100D0000204610BD53480068704700000F000020C7
:100D10009400002015000020190000201D00002074
:100D20000E000020310000200800002036000020C6
:100D300029000020210000200D0A2D2D2D2D2D2D04
:100D40002D2D2D2D2D2D2D2D2D2D2D2D2D2D2D2DD3
:100D50002D2D2D2D2D2D2D2D2D2D2D2D2D2D2D2DC3
:100D60002D2D2D200D0A0000573532303045303101
:100D70002D4D332020202020202020202020202026
:100D8000202020202020202020200D0A000000000C
:100D90004E6574776F726B20436F6E66696775720C
:100DA0006174696F6E20496E666F726D6174696FF0
:100DB0006E200D0A000000002D2D2D2D2D2D2D2D26
:100DC0002D2D2D2D2D2D2D2D2D2D2D2D2D2D2D2D53
:100DD0002D2D2D2D2D2D2D2D2D2D2D2D2D2D2D2D43
:100DE0002D2000000D0A4D4143203A20252E325877
:100DF0002E252E32582E252E32582E252E32582EA4
:100E0000252E32582E252E32580000000D0A49504A
:100E1000203A2025642E25642E25642E25640000AA
:100E20000D0A534E203A2025642E25642E25642E6B
:100E3000256400000D0A4757203A2025642E2564BA
:100E40002E25642E25640000000C0140000801409E
:100E50000038014044000020704700BFFEE700BF9B
:100E6000FEE700BFFEE700BFFEE770477047704730
:100E7000704710B50121880702F09DFF012805D1B8
:100E80000121800702F0A8FFFFF73CFC10BD70476E
:100E90007047704710B504464FF4804101EB0421C0
:100EA000491C88B2102100F055FC00BF4FF480416E
:100EB00001EB0421491C88B200F064FC0028F5D144
:100EC0004FF4804101EB0421891C88B2FF2100F01E
:100ED00041FC10BD2DE9F04104460D4616469846EA
:100EE000012D07D0022D05D0032D03D0042D01D0F4
:100EF000052D4FD12046FFF7CDFF45EA08014FF4FD
:100F0000804202EB042290B200F024FC96B1310A38
:100F10004FF4804202EB0422121D90B200F01AFC42
:100F2000F1B24FF4804202EB0422521D90B200F065
:100F300011FC19E0F7480088401CF64908800A4671
:100F40001288110A4FF4804202EB0422121D90B263
:100F500000F000FCEF4A11784FF4804202EB0422CB
:100F6000521D90B200F0F6FB4FF4804101EB0421DA
:100F7000491C88B2012100F0EDFB00BF4FF4804115
:100F800001EB0421491C88B200F0FCFB0028F5D1DC
:100F9000012700E000273846BDE8F08170B504461F
:100FA0004FF4804101EB0421C91C88B200F0EAFB38
:100FB000132815D14FF4804101EB0421491C88B25C
:100FC000022100F0C7FB00BF4FF4804101EB042178
:100FD000491C88B200F0D6FB0028F5D1012500E0BD
:100FE0000025284670BD2DE9F04104460D46164601
:100FF0002878FF2808D16878FF2805D1A878FF282D
:1010000002D1E878FF2808D0287828B9687818B97C
:10101000A87808B9E87800B10EB900276FE0012779
:101020002978BA0302EB04220C3290B200F092FB52
:101030006978BA0302EB04220D3290B200F08AFB09
:10104000A978BA0302EB04220E3290B200F082FBC0
:10105000E978BA0302EB04220F3290B200F07AFB77
:10106000310ABA0302EB0422103290B200F072FB94
:10107000F1B2BA0302EB0422113290B200F06AFB23
:1010800000F012FDB90301EB0421491C88B20421D0
:1010900000F060FB00BF4FF4804101EB0421491CCC
:1010A00088B200F06FFB0028F5D11BE04FF48041BF
:1010B00001EB0421C91C88B200F064FB172800D1A1
:1010C0001AE0204600F0DDFD00F0080050B14FF4BA
:1010D000804101EB0421891C88B2082100F03AFB11
:1010E000002709E04FF4804101EB0421C91C88B2BC
:1010F00000F048FB1528D9D100BF00F0ACFC384601
:10110000BDE8F08110B504464FF4804101EB0421A5
:10111000491C88B2082100F01DFB00BF4FF480413C
:1011200001EB0421491C88B200F02CFB0028F5D10A
:1011300010BD2DE9FF5F0446904699464FF0000A26
:101140000025AB46B9F1000F28D1204600F0D9FAAE
:10115000404504DA204600F0D4FA054600E0454652
:1011600000BF204600F0A3FD83464FF4804101EB11
:101170000421C91C88B200F005FB8246BAF1170FA2
:1011800004D0BAF11C0F01D0002501E0AB45E8DB2B
:1011900000BF2A462046019900F020FEB9F1000F59
:1011A00001D1002D6BD04FF4804101EB042122319D
:1011B00088B200F0E7FA07464FF4804101EB0421C2
:1011C000233188B200F0DEFA00EB072087B24FF43B
:1011D000804101EB0421491C88B2202100F0BAFAB9
:1011E00000BF4FF4804101EB0421491C88B200F09C
:1011F000C9FA0028F5D10FE04FF4804101EB04213A
:10120000891C88B200F0BEFA30B92046FFF742FED2
:10121000002004B0BDE8F09F4FF4804101EB0421B1
:10122000891C88B200F0AEFA00F010001028E3D15B
:10123000810201EB0421891C88B2102100F08AFA96
:101240004FF4804101EB0421223188B200F09AFA78
:1012500006464FF4804101EB0421233188B200F0AF
:1012600091FA00EB062086B2BE4202DDF01B85B289
:1012700005E04FF6FF70C01B3044401C85B2284685
:10128000C7E72DE9F04104460E4615460027002D1C
:1012900019DD2A463146204600F00BFE4FF480410E
:1012A00001EB0421491C88B2402100F053FA00BF31
:1012B0004FF4804101EB0421491C88B200F062FA2E
:1012C0000028F5D12F463846BDE8F0812DE9F047DA
:1012D0000446894616461D46089F4FF000082046E2
:1012E00000F00FFAB04204DA204600F00AFA804615
:1012F00000E0B046287828B9687818B9A87808B905
:10130000E87818B117B1B8F1000F05D14FF0000817
:1013100082E000004C00002029784FF4804202EB6C
:1013200004220C3290B200F015FA69784FF4804232
:1013300002EB04220D3290B200F00CFAA9784FF4BF
:10134000804202EB04220E3290B200F003FAE978F8
:101350004FF4804202EB04220F3290B200F0FAF90F
:10136000390A4FF4804202EB0422103290B200F0AE
:10137000F1F9F9B24FF4804202EB0422113290B23B
:1013800000F0E8F942464946204600F027FD00F00B
:101390008BFB4FF4804101EB0421491C88B22021D2
:1013A00000F0D8F900BF4FF4804101EB0421491C43
:1013B00088B200F0E7F90028F5D116E04FF480413B
:1013C00001EB0421891C88B200F0DCF900F0080070
:1013D00058B14FF4804101EB0421891C88B21821D7
:1013E00000F0B8F90020BDE8F0874FF4804101EB30
:1013F0000421891C88B200F0C5F900F01000102803
:10140000DCD100F028FB4FF4804101EB0421891C62
:1014100088B2102100F09EF94046E4E72DE9FC4730
:101420000446894692461E46DDF82880002700259E
:10143000BAF1000F7DDD4FF4804101EB042128312A
:1014400088B200F09FF905464FF4804101EB04217A
:10145000293188B200F096F900EB052085B24FF4EF
:10146000804101EB042188B200F08CF900F0070004
:10147000022804D0032845D004287BD17BE0082330
:101480006A462946204600F0DEFC05F1080085B2D8
:101490009DF8000030709DF8010070709DF802000A
:1014A000B0709DF80300F0709DF80400A8F80000EB
:1014B0009DF8050098F8001000EB0120A8F8000046
:1014C0009DF806709DF8070000EB072087B23B46A9
:1014D0004A462946204600F0B6FCE81985B2290A9A
:1014E0004FF4804202EB0422283290B200F032F92D
:1014F000E9B24FF4804202EB0422293290B200F0AC
:1015000029F96DE006236A462946204600F09BFC37
:10151000A81D85B29DF8000030709DF80100707024
:101520009DF80200B0709DF80300F0709DF8047003
:1015300000E06AE09DF8050000EB072087B23B461B
:101540004A462946204600F07EFCE81985B2290A61
:101550004FF4804202EB0422283290B200F0FAF8F5
:10156000E9B24FF4804202EB0422293290B200F03B
:10157000F1F835E033E002236A462946204600F0C0
:1015800062FCA81C85B29DF800709DF8010000EB7C
:101590000720801E87B240F2EA50874204DD1CA07B
:1015A00002F034FF00BFFEE73B464A46294620468C
:1015B00000F049FCE81985B2290A4FF4804202EB99
:1015C0000422283290B200F0C5F8E9B24FF480420C
:1015D00002EB0422293290B200F0BCF800E000BF18
:1015E00000BF4FF4804101EB0421491C88B2402127
:1015F00000F0B0F800BF4FF4804101EB0421491C1A
:1016000088B200F0BFF80028F5D13846BDE8FC8765
:10161000646174615F6C656E206F76657220313530
:1016200031340D0A0000000000B585B00020ADF88F
:1016300000004FF48270ADF802000020ADF8040005
:10164000ADF80600ADF808004FF40070ADF80A00E0
:101650000820ADF80C000020ADF80E000720ADF812
:1016600010006946184801F04DFB0121164801F0B1
:10167000EEFB05B000BD10B5044624B91021134897
:1016800001F0A9F805E0012C03D110210F4801F069
:10169000A0F810BD10B5044600BF02210A4801F0B1
:1016A0005AFC0028F9D02146074801F001FC00BF90
:1016B0000121054801F04FFC0028F9D0024801F053
:1016C000F9FBC0B210BD000000300140000801402D
:1016D0000146FE48405CFD4A525C521CFB4B5A548A
:1016E00070470021F94A115470470146F848405CA0
:1016F0007047F74A115470470146F64830F8110018
:1017000070470146F44830F8110070470146F3482D
:1017100030F8110070470146F14830F81100704769
:101720000146F04830F8110070470146EE4830F8A5
:101730001100704710B50020FFF79DFF10BD10B5D8
:101740000120FFF798FF10BD10B504462046FFF7B3
:10175000A1FF10BD70B504460D46FFF7EBFF200A50
:10176000FFF7F2FFE0B2FFF7EFFF8020FFF7ECFF9B
:101770000120FFF7E9FF2846FFF7E6FFFFF7DFFF4D
:10178000012070BD70B50446FFF7D4FF200AFFF7B3
:10179000DBFFE0B2FFF7D8FF0020FFF7D5FF012005
:1017A000FFF7D2FF0020FFF7CFFF0546FFF7C7FF87
:1017B000284670BD2DE9F04106460F461446002527
:1017C00014B90020BDE8F081FFF7B4FF7119C1F32F
:1017D0000720FFF7B9FF7119C8B2FFF7B5FFC4F3CF
:1017E000062141F08000FFF7AFFFE0B2FFF7ACFF4A
:1017F000002504E0785DFFF7A7FF681C85B2A542CD
:10180000F8DBFFF79CFF2046DCE72DE9F0410646B8
:101810000F4614460025FFF78DFF7119C1F307200D
:10182000FFF792FF7119C8B2FFF78EFFC4F30620CD
:10183000FFF78AFFE0B2FFF787FF00BF05E0002057
:10184000FFF782FF7855681C85B2A542F7DBFFF7EA
:1018500076FF2046BDE8F08110B504462146002001
:10186000FFF778FF10BD10B58020FFF7F5FF10BD22
:101870002DE9F04105460E460027B8464FF40040DA
:10188000994908804FF44040964908800024C0E000
:10189000295D4FF4804202EB04221F3290B2FFF721
:1018A00059FF315D4FF4804202EB04221E3290B2A8
:1018B000FFF750FF0020884921F81400854921F8DE
:1018C0001400B7F5804F40DC285D04281ED004DCEE
:1018D000012807D0022837D10EE0082820D0102890
:1018E00032D127E04FF480607B4921F81400401E7C
:1018F0007B4921F8140027E04FF40060764921F875
:101900001400401E764921F814001DE04FF4805069
:10191000714921F81400401E714921F8140013E0A8
:101920004FF400506C4921F81400401E6C4921F816
:10193000140009E04FF48040674921F81400401E6C
:10194000674921F8140000BF00BFB8F5804F40DCA4
:10195000305D04281ED004DC012807D0022837D1CE
:101960000EE0082820D0102832D127E04FF4806004
:10197000584921F81400401E584921F8140027E066
:101980004FF40060534921F81400401E534921F8D8
:1019900014001DE04FF480504E4921F81400401E01
:1019A0004E4921F8140013E04FF40050494921F842
:1019B0001400401E494921F8140009E04FF480400A
:1019C000444921F81400401E444921F8140000BF86
:1019D00000BF414830F8140007443E4830F8140076
:1019E0008044ACB1601E404931F810103A4A32F8D8
:1019F000100008443C4921F81400601E394931F8B0
:101A00001010344A32F810000844364921F8140006
:101A1000641C082CFFF63CAFBDE8F08110B504460D
:101A200021780120FFF796FE61780220FFF792FEF1
:101A3000A1780320FFF78EFEE1780420FFF78AFEED
:101A400010BD0178294A11704178517081789170E8
:101A5000C178D170704710B5244801780520FFF790
:101A600079FE224841780620FFF774FE1F488178EE
:101A70000720FFF76FFE1D48C1780820FFF76AFEB8
:101A800010BD10B504460F20FFF77CFE207010201B
:101A9000FFF778FE60701120FFF774FEA07012202F
:101AA000FFF770FEE07010BD10B51148FFF7E9FFB9
:101AB0000F48007868BB0E48407850BB0C488078CF
:101AC00038BB0B48C07820BB002113E05E0000202B
:101AD0004E000020DC100020CC100020BC100020A4
:101AE000AC100020FC100020EC100020560000205C
:101AF0005A0000200520FFF72DFE00210620FFF7E9
:101B000029FE00210720FFF725FE00210820FFF70E
:101B100021FE10BD10B5044621780920FFF71AFEFA
:101B200061780A20FFF716FEA1780B20FFF712FE5E
:101B3000E1780C20FFF70EFE21790D20FFF70AFE59
:101B400061790E20FFF706FE10BD10B5044621781E
:101B50000F20FFF7FFFD61781020FFF7FBFDA17854
:101B60001120FFF7F7FDE1781220FFF7F3FD10BD1C
:101B700010B504460120FFF705FE20700220FFF794
:101B800001FE60700320FFF7FDFDA0700420FFF749
:101B9000F9FDE07010BDE14909780170DF4949782D
:101BA0004170DE4989788170DC49C978C17070471D
:101BB00010B504460920FFF7E5FD20700A20FFF765
:101BC000E1FD60700B20FFF7DDFDA0700C20FFF73A
:101BD000D9FDE0700D20FFF7D5FD20710E20FFF735
:101BE000D1FD607110BD10B51520FFF7CBFD10BD04
:101BF00010B50446210A1720FFF7ACFDE1B218200A
:101C0000FFF7A8FD10BD10B5044621461920FFF7C7
:101C1000A1FD10BD10B5044621463620FFF79AFD00
:101C200010BD70B504460D46290A4FF4804202EB00
:101C30000422123290B2FFF78DFDE9B24FF48042D8
:101C400002EB0422133290B2FFF784FD70BD70B531
:101C500004460D464FF4804101EB0421163188B251
:101C60002946FFF777FD70BD70B504460D464FF469
:101C7000804101EB0421143188B22946FFF76AFD47
:101C800070BD10B504464FF4804101EB0421891C5E
:101C900088B2FFF777FD10BD10B504464FF48041C0
:101CA00001EB0421C91C88B2FFF76CFD10BD70B5B3
:101CB00004460025002600BF4FF4804101EB0421BB
:101CC000203188B2FFF75EFD06464FF4804101EBFC
:101CD0000421213188B2FFF755FD00EB062086B2C2
:101CE0009EB14FF4804101EB0421203188B2FFF70F
:101CF00049FD05464FF4804101EB0421213188B2B2
:101D0000FFF740FD00EB052085B2B542D4D128464F
:101D100070BD70B504460025002600BF4FF4804119
:101D200001EB0421263188B2FFF72CFD06464FF463
:101D3000804101EB0421273188B2FFF723FD00EB3E
:101D4000062086B29EB14FF4804101EB042126317A
:101D500088B2FFF717FD05464FF4804101EB0421DF
:101D6000273188B2FFF70EFD00EB052085B2B542A2
:101D7000D4D1284670BD2DE9F04782468846914669
:101D80001C465046FFF7C7FC00EA09075046FFF71C
:101D9000CCFCC5195046FFF7B4FC3919884216DA55
:101DA0005046FFF7AEFCC01B86B2A8B23246414691
:101DB000FFF700FDB044A01B86B25046FFF7B5FC0C
:101DC0000546284632464146FFF7F4FC04E0A8B237
:101DD00022464146FFF7EEFCBDE8F0872DE9F041D1
:101DE00004460F4616464FF4804101EB042124318E
:101DF00088B2FFF7C7FC05464FF4804101EB042190
:101E0000253188B2FFF7BEFC00EB052085B23346D2
:101E10002A4639462046FFF7AEFFA81985B2290A9F
:101E20004FF4804202EB0422243290B2FFF792FC7E
:101E3000E9B24FF4804202EB0422253290B2FFF760
:101E400089FCBDE8F0812DE9F047824689461646B7
:101E50001C465046FFF75AFC00EA09085046FFF7B7
:101E60005FFC00EB08055046FFF746FC08EB040159
:101E7000884217DA5046FFF73FFCA0EB080087B214
:101E8000A8B23A463146FFF7C0FC3E44E01B87B299
:101E90005046FFF745FC054628463A463146FFF7CF
:101EA000B4FC04E0A8B222463146FFF7AEFCBDE820
:101EB000F0872DE9F04104460F4616464FF4804165
:101EC00001EB0421283188B2FFF75CFC05464FF492
:101ED000804101EB0421293188B2FFF753FC00EB6C
:101EE000052085B233463A4629462046FFF7ABFF28
:101EF000A81985B2290A4FF4804202EB0422283245
:101F000090B2FFF727FCE9B24FF4804202EB0422C3
:101F1000293290B2FFF71EFCBDE8F0815600002088
:101F200031490143314A1160704770B500210023E7
:101F30000F22C47804B32D4C246804F4E064C4F583
:101F4000E064210AC1F10403CA40447804FA03F1B1
:101F50008478144021430901254C0678A155047862
:101F600004F01F050124AC4005786D11AD0005F1AA
:101F7000E025C5F8004109E0047804F01F050124BC
:101F8000AC401C4D0678761145F8264070BD1A4AC3
:101F90000A400243154B1B1F1A60704739B1134AA0
:101FA000121D12680243114B1B1D1A6006E00F4AF6
:101FB000121D126882430D4B1B1D1A6070470428C6
:101FC00008D14FF0E021096941F004014FF0E0220F
:101FD000116107E04FF0E021096921F004014FF0A1
:101FE000E0221161704700000000FA050CED00E0EE
:101FF00000E400E080E100E080FFFF1F01460020D8
:10200000FE4A106800F03800084310607047FB4932
:10201000096821F00801F94A116011460968014375
:1020200011607047F549096821F01001F34A116009
:1020300011460968014311607047F148EF49486053
:10204000F04848607047EE48EC494860ED48486009
:102050007047EA48006940F08000E849086170472D
:10206000E648006940F08000E449086170470420B8
:10207000E249C96801F0010109B101200EE0DF4920
:10208000C96801F0040109B1022007E0DB49C96811
:1020900001F0100109B1032000E00420704700B5F1
:1020A00002460423FFF7E3FF034603E0FFF7DFFFE9
:1020B0000346521E012B01D1002AF7D102B9052394
:1020C000184600BD30B5044604254FF43020FFF714
:1020D000E6FF0546042D17D1C848006940F002000C
:1020E000C649086108464461006940F04000086143
:1020F0004FF43020FFF7D3FF0546C048006941F692
:10210000FD710840BD490861284630BD10B5042462
:102110004FF43020FFF7C3FF0446042C16D1B74814
:10212000006940F00400B54908610846006940F0C4
:10213000400008614FF43020FFF7B1FF0446AF487C
:10214000006941F6FB710840AC490861204610BDAA
:1021500000B502460423FFF78AFF034603E0FFF7BA
:1021600086FF0346521E012B01D1002AF7D102B986
:102170000523184600BD10B504244FF43020FFF7A6
:10218000E7FF0446042C16D19C48006940F0040087
:102190009A4908610846006940F0400008614FF420
:1021A0003020FFF7D5FF04469448006941F6FB71E3
:1021B000084092490861204610BD00208F49C96936
:1021C00001F0020109B1012000E00020704730B5A4
:1021D000A5250424FFF7F1FF00B100254FF43020BE
:1021E000FFF75DFF0446042C3AD185488349886097
:1021F000844888600846006940F02000086108466D
:10220000006940F0400008614FF43020FFF747FFBD
:102210000446042C1BD17948006941F6DF7108405F
:10222000764908610846006940F010000861764868
:102230000580E002FFF733FF0446052C10D06F48FD
:10224000006941F6EF7108406C49086108E0052C0F
:1022500006D06A48006941F6EF7108406749086195
:10226000204630BD78B506460C4604250020009077
:10227000E802FFF714FF0546042D24D15F480069EA
:1022800040F001005D4908613480E802FFF707FF74
:102290000546042D10D1B01C0090200C0099088038
:1022A000E802FFF7FCFE05465448006941F6FE715E
:1022B00008405249086106E05048006941F6FE7145
:1022C00008404E490861284678BD70B504460D4661
:1022D0000426F002FFF7E3FE0646042E11D147481C
:1022E000006940F00100454908612580F002FFF7D0
:1022F000D6FE06464148006941F6FE7108403F4956
:102300000861304670BD70B505460E460424E002F3
:10231000FFF7C5FE0446042C17D1394837498860B9
:10232000384888600846006940F0100008612E8037
:10233000E002FFF7B4FE0446052C06D02F480069E2
:1023400041F6EF7108402D490861204670BD2DE926
:10235000F04304464FF6FF763746B046B1460425B3
:10236000E443E6B2C4F30727C4F307484FEA14690D
:10237000E802FFF794FE0546042D49D120481F4985
:102380008860204888600846006940F010000861B5
:10239000FF2E06D01C4808300680E802FFF77FFEBB
:1023A0000546042D08D1FF2F06D017480A300780B4
:1023B000E802FFF774FE0546042D0AD1B8F1FF0FBD
:1023C00007D011480C30A0F80080E802FFF767FE44
:1023D0000546042D0AD1B9F1FF0F07D00A480E3087
:1023E000A0F80090E802FFF75AFE0546052D0FD031
:1023F0000248006941F6EF71084007E00020024002
:1024000023016745AB89EFCD00F8FF1F66490861DE
:102410002846BDE8F08330B5054604244FF430204B
:10242000FFF73DFE0446042C41D160485E498860B8
:102430005F4888600846006940F02000086108464F
:10244000006940F0400008614FF43020FFF727FE9C
:102450000446042C22D15448006941F6DF7108403B
:10246000514908610846006940F0100008611DB13B
:1024700000205049088002E0A5204E4908804FF412
:102480003020FFF70CFE0446052C10D046480069AA
:1024900041F6EF7108404449086108E0052C06D078
:1024A0004148006941F6DF7108403F490861204614
:1024B00030BDF0B505460E46174604243B483A4960
:1024C00088603B488860E002FFF7E9FD0446042C81
:1024D00019D13548006940F010003349086147F0D0
:1024E000F800304328433349891C0880E002FFF795
:1024F000D6FD0446052C06D02B48006941F6EF7145
:102500000840294908612046F0BD2748C069800875
:1025100070472548006A704700202349096801F088
:10252000200109B1012000E00020704729B11E4AB6
:10253000126902431C4B1A6104E01B4A1269824370
:10254000194B1A61704701460020012908D1164A2B
:10255000D26902F001020AB1012008E0002006E081
:10256000114AD2680A400AB1012000E000207047F9
:102570000D49C860704704200B49C96801F001018A
:1025800009B101200EE00849C96801F0040109B150
:10259000022007E00449C96801F0100109B10320D5
:1025A00000E004207047000000200240230167453E
:1025B000AB89EFCD00F8FF1F10B50446CC4884422C
:1025C00008D10121042000F02DFB0021042000F09F
:1025D00029FB46E0C748844208D10121082000F0C9
:1025E00021FB0021082000F01DFB3AE0C248844294
:1025F00008D10121102000F015FB0021102000F06F
:1026000011FB2EE0BD48844208D10121202000F0BA
:1026100009FB0021202000F005FB22E0B84884429D
:1026200008D10121402000F0FDFA0021402000F0F7
:10263000F9FA16E0B348844208D10121802000F065
:10264000F1FA0021802000F0EDFA0AE0AE48844261
:1026500007D10121801500F0E5FA0021A01500F056
:10266000E1FA10BD10B50121084600F0DBFA0021A7
:10267000012000F0D7FA10BD2DE9F04102460025F7
:102680000026002000230024002791F803C00CF04E
:102690000F0591F803C00CF0100CBCF1000F03D033
:1026A00091F802C04CEA050591F800C0BCF1000F9A
:1026B00031D0146800202BE04FF0010C0CFA00F32D
:1026C000B1F800C00CEA03069E4220D183004FF00F
:1026D0000F0C0CFA03F7BC4305FA03FC4CEA0404A4
:1026E00091F803C0BCF1280F06D14FF0010C0CFA91
:1026F00000FCC2F814C00AE091F803C0BCF1480F16
:1027000005D14FF0010C0CFA00FCC2F810C0401CBF
:102710000828D1D31460B1F800C0BCF1FF0F34DD3C
:10272000546800202EE000F1080C4FF0010808FA70
:102730000CF3B1F800C00CEA03069E4221D18300DD
:102740004FF00F0C0CFA03F7BC4305FA03FC4CEAFC
:10275000040491F803C0BCF1280F05D100F1080C66
:1027600008FA0CF8C2F8148091F803C0BCF1480FC5
:1027700007D100F1080C4FF0010808FA0CF8C2F874
:102780001080401C0828CED35460BDE8F0814FF67D
:10279000FF710180022181700421C17070470246DF
:1027A000002093680B400BB1012000E0002070472F
:1027B0000146886880B2704702460020D3680B400B
:1027C0000BB1012000E0002070470146C86880B2CC
:1027D000704701617047416170470AB1016100E0D3
:1027E00041617047C16070474FF480320A43826193
:1027F0008161826182698269704702460020434B91
:1028000018684FF68073184040EA021008433F4BA7
:10281000186070473E49C8617047F0B50A4600230A
:1028200000240021002500F00046B6F1004F02D13F
:10283000364EF16901E0354E7168C0F3034583B24D
:1028400000F44016B6F5401F08D121F070612F4EFC
:10285000766826F070662D4F7E6012E000F48016D8
:10286000B6F5801F06D1032606FA05F4A14341F010
:10287000706106E0460D360103FA06F6B14341F0F9
:10288000706122B1460D360103FA06F6314300F0BD
:102890000046B6F1004F02D11C4EF16101E01B4E23
:1028A0007160F0BD30B500228B071C0F0F2303FAB7
:1028B00004F2164B08338C1053F824309343134C16
:1028C00008348D1044F8253023468C1053F82430FA
:1028D0008C07240F00FA04F423430C4C08348D10A9
:1028E00044F8253030BD0A49DC31086070470000EB
:1028F00000080140000C014000100140001401409C
:1029000000180140001C014000200140000001406F
:1029100000002042DF48006840F00100DD49086007
:1029200008464068DC490840DA49486008460068C3
:10293000DA490840D74908600846006820F480203A
:1029400008600846406820F4FE0048604FF41F000D
:1029500088607047CF49096821F48031CD4A116001
:102960001146096821F480211160B0F5803F03D041
:10297000B0F5802F0ED106E0C649096841F48031D8
:10298000C44A116007E0C349096841F4A021C14A63
:10299000116000E000BF00BF704710B50146002283
:1029A000002300204A11012A02D1BA4C236806E014
:1029B000022A02D1B74C236A01E0B64C636A01F0E7
:1029C0001F02012494401C400CB1012000E00020B3
:1029D00010BD38B5002000900024002500BF312034
:1029E000FFF7DBFF05460098401C00900098B0F50B
:1029F000A06F01D0002DF2D03120FFF7CEFF08B13B
:102A0000012400E00024204638BD01460020A14AF0
:102A1000106820F0F80040EAC10010607047A0493B
:102A200008607047024600209A4B586820F47C10DA
:102A300042EA01031843974B58607047984908666B
:102A4000704701460020934A506820F00300084375
:102A5000506070478F48406800F00C007047014696
:102A600000208C4A506820F0F00008435060704706
:102A700001460020874A506820F4E0600843506017
:102A8000704701460020834A506820F4605040EAB5
:102A9000C1005060704729B17E4A527A02437D4B93
:102AA0005A7204E07B4A527A82437A4B5A727047D8
:102AB0007B49D8310860704701460020754A50684C
:102AC00020F440400843506070470021714A203292
:102AD0001170704A82F82010012802D004280AD10F
:102AE00004E001216B4A2032117005E00521694A9A
:102AF0002032117000E000BF00BF704769490860D4
:102B000070476449096A0143624A11627047654926
:102B100044390860704730B50021002200240023AA
:102B20005C4D6D6805F00C0121B1042905D0082920
:102B300023D105E05C4D056022E05B4D05601FE0A0
:102B4000544D6D6805F47012524D6D6805F4803473
:102B5000022505EB92421CB9544D554305600BE02C
:102B60004C4D6D6805F400351DB1504D5543056061
:102B700002E04D4D5543056002E04B4D056000BF3E
:102B800000BF444D6D6805F0F0010909484D6B5CCC
:102B90000568DD4045603F4D6D6805F4E061090A58
:102BA000434D6B5C4568DD4085603A4D6D6805F4CA
:102BB0006051C90A3E4D6B5C4568DD40C560354DCE
:102BC0006D6805F44041890B3A4D6B5CC568B5FBF7
:102BD000F3F5056130BD29B12E4A526902432D4BF0
:102BE0005A6104E02B4A526982432A4B5A6170476A
:102BF00029B1284A92690243264B9A6104E0254A8A
:102C000092698243234B9A61704729B1214AD26964
:102C10000243204BDA6104E01E4AD26982431D4B15
:102C2000DA61704729B11B4AD2680243194BDA6056
:102C300004E0184AD2688243164BDA60704729B123
:102C4000144A12690243134B1A6104E0114A1269D3
:102C50008243104B1A61704712494039086070472F
:102C60000F49C86470470B49C87170470948406AEA
:102C700040F0807007494862704701460020054ACD
:102C800092680A400AB1012000E000207047014923
:102C900088727047001002400000FFF8FFFFF6FE48
:102CA000000042428004424200127A0000093D00C6
:102CB0006A0000207A00002010B50446BE48844215
:102CC00008D101218014FFF7ADFF0021A014FFF708
:102CD000A9FF16E0B948844208D101210014FFF78A
:102CE000AEFF00212014FFF7AAFF0AE0B448844297
:102CF00007D10121C013FFF7A2FF0021E013FFF766
:102D00009EFF10BD10B50022028802F441520B88CC
:102D10004C8823438C882343CC8823430C8923434A
:102D20004C8923438C892343CC8923431A43028053
:102D3000838B4FF2FF74234083830B8A038210BD81
:102D40002DE9F04F85B005460C464FF000090227EB
:102D50004FF000084FF0010B0026B246A88B4FF24F
:102D600040010840A88302202884B5F81C90A06880
:102D7000022801D100BF38E0A08810B94FF0010B44
:102D800001E04FF0020B8D48854200D100E000BF0A
:102D90006846FFF7C0FEDDF800A0E088B0F5007FD0
:102DA0000AD14FEA1A2000EB80004000A168B0FB76
:102DB000F1F0401D86B20BE04FEA4B10BAFBF0F089
:102DC00000EB80004000A168B0FBF1F0401D86B22E
:102DD0000A20B6FBF0F606F00108A6EB0800C0F3E7
:102DE0004F074FF6FF7000EA0828022F01DBFF2F84
:102DF00002DD02274FF00008E08840EA080038436F
:102E00002884A088A1890843618808432188084351
:102E100040F4006040EA0909A5F81C9005B0BDE83F
:102E2000F08F0021018041808180C180018141813A
:102E30008181C18107210182704700210180418089
:102E40008180C1800221816000218181704721B190
:102E5000028842F04002028004E002884FF6BF730D
:102E60001A400280704721B1828B42F480628283D3
:102E700004E0828B4FF6FF331A408283704730B5EF
:102E8000002400230C110125A540ABB21AB185889E
:102E90001D43858002E085889D43858030BD1AB141
:102EA00083880B43838002E083888B438380704751
:102EB000818170470146888970474FF6FF629142D1
:102EC00004D0028842F48072028004E002884FF647
:102ED000FF631A400280704721B1828842F00402E9
:102EE000828004E082884FF6FB731A40828070472C
:102EF00002884FF2FF731A40028002880A43028060
:102F00007047018841F480510180704721B10288E7
:102F100042F40052028004E002884DF6FF731A402A
:102F20000280704702460020012901D0108B00E08A
:102F3000908A70470146088A7047B1F5804F04D1E6
:102F4000028842F48042028004E002884BF6FF735C
:102F50001A40028070470246002013890B400BB1D3
:102F6000012000E000207047CA4302817047F0B59D
:102F70000246002000240023002501F00F0701264F
:102F8000BE40B4B20B1101269E40B3B2968806EA49
:102F900003051689264016B10DB1012000E000207E
:102FA000F0BD10B5002201F00F040123A3409AB236
:102FB000D343038110BD00000030014000380040C1
:102FC000003C004010B50446FE48844208D101216F
:102FD000C014FFF727FE0021E014FFF723FEC4E032
:102FE000B4F1804F08D101210846FFF728FE0021E7
:102FF0000120FFF724FEB8E0F348844208D1012104
:103000000220FFF71CFE00210220FFF718FEACE0B3
:10301000EE48844208D101210420FFF710FE002170
:103020000420FFF70CFEA0E0E948844208D101210A
:103030000820FFF704FE00210820FFF700FE94E0BF
:10304000E448844208D101211020FFF7F8FD002157
:103050001020FFF7F4FD88E0DF48844208D1012109
:103060002020FFF7ECFD00212020FFF7E8FD7CE0A9
:10307000DA48844208D101214014FFF7D3FD002132
:103080006014FFF7CFFD70E0D548844209D10121DB
:10309000C804FFF7C7FD00214FF40020FFF7C2FD71
:1030A00063E0D048844209D101210805FFF7BAFD49
:1030B00000214FF48010FFF7B5FD56E0CA48844266
:1030C00009D101214805FFF7ADFD00214FF40010A3
:1030D000FFF7A8FD49E0C548844208D101214020FE
:1030E000FFF7ADFD00214020FFF7A9FD3DE0C048FE
:1030F000844208D101218020FFF7A1FD002180201A
:10310000FFF79DFD31E0BB48844208D101218015C5
:10311000FFF795FD0021A015FFF791FD25E0B648CA
:10312000844209D101210804FFF77CFD00214FF4FE
:103130008030FFF777FD18E0B048844209D10121C3
:103140004804FFF76FFD00214FF40030FFF76AFDE0
:103150000BE0AB48844208D101218804FFF762FDEF
:1031600000214FF48020FFF75DFD10BD0022028892
:10317000944B98420ED0994B98420BD0B0F1804FAF
:1031800008D0914B984205D0904B984202D0904B7A
:10319000984204D14FF68F731A404B881A438D4BD7
:1031A000984207D08C4B984204D04FF6FF431A4008
:1031B000CB881A4302808B8883850B880385814BDB
:1031C00098420BD0854B984208D08B4B984205D043
:1031D0008A4B984202D08A4B984201D10B7A0386DF
:1031E00001238382704770B5002400220023058CE0
:1031F0004FF6FE7635400584028C8388048B4FF6AB
:103200008F752C40B51E2C400D882C43751E2A400E
:103210000D892A434D882A436A4DA8420BD06F4D31
:10322000A84208D0744DA84205D0744DA84202D0DF
:10323000734DA84213D14FF6F7752A404D892A43A2
:103240004FF6FB752A408D882A434FF6FF652B40C9
:103250004FF6FF552B408D892B43CD892B4383801F
:103260000483CD888586028470BD70B50024002259
:103270000023058C4FF6EF7635400584028C838859
:10328000048B48F6FF752C404FF6FF452C400D8807
:103290004FF6FF7606EA05252C434FF6DF752A40E8
:1032A0000D8906EA05152A434D8806EA05152A43C5
:1032B000444DA84202D0494DA8421DD14FF67F751A
:1032C0002A404D894FF6FF7606EA05152A434FF648
:1032D000BF752A408D8806EA05152A434FF6FF354B
:1032E0002B404FF2FF752B408D8906EA85052B4355
:1032F000CD8906EA85052B4383800483CD88058725
:10330000028470BD70B5002400220023058C4FF6A6
:10331000FF6635400584028C8388848B4FF68F7559
:103320002C404FF6FC752C400D882C434FF6FF5572
:103330002A400D894FF6FF7606EA05252A434D8877
:1033400006EA05252A431F4DA84202D0234DA84274
:103350001DD14FF2FF752A404D894FF6FF7606EAE0
:1033600005252A434FF6FF352A408D8806EA0525B4
:103370002A434EF6FF752B404DF6FF752B408D8985
:1033800006EA05152B43CD8906EA05152B438380F4
:103390008483CD888587028470BD70B500220023A8
:1033A0000024058C4EF6FF7635400584038C848816
:1033B000828B48F6FF752A404FF6FF452A400D885C
:1033C00020E00000002C0140000400400008004004
:1033D000000C004000100040001400400034014088
:1033E000004C0140005001400054014000180040D2
:1033F000001C00400020004000400140004401400B
:10340000004801404FF6FF7606EA05252A434DF6AF
:10341000FF752B400D8906EA05352B434D8806EADA
:1034200005352B43FA4DA84202D0FA4DA84208D1E7
:103430004BF6FF752C408D894FF6FF7606EA851511
:103440002C4384808283CD88A0F84050038470BDD3
:10345000828B4FF2FF331A408283828B4FF6FF73C9
:1034600003EA01231A4382837047F0B50C461546E0
:10347000002200210026078C4EF6FF7C07EA0C078D
:103480000784828B018C4FF6FF7707EA043640F6FB
:10349000FF473A404FF6FF7707EA05273A434FF6D2
:1034A000FF7707EA03373A43D94FB8420ED0D94FD6
:1034B000B8420BD0B0F1804F08D0D74FB84205D0FA
:1034C000D64FB84202D0D64FB84206D14DF6FF775C
:1034D000394046F48057394305E047F6FF573940F5
:1034E00044F48057394382830184F0BD828B4FF6C8
:1034F000F3731A408283828B0A4382837047F0B54C
:103500000C461546002200210026078C4FF6FF6C62
:1035100007EA0C070784828B018C4FF6FF7707EAD6
:1035200004264FF60C773A404FF6FF7707EA031769
:103530002F433A43B64FB8420ED0B64FB8420BD0E5
:10354000B0F1804F08D0B44FB84205D0B34FB84265
:1035500002D0B34FB84206D14FF6FF57394046F478
:103560008077394305E04FF2FF57394044F48077C4
:10357000394382830184F0BD028B4FF2FF331A403E
:103580000283028B4FF6FF7303EA01231A4302837F
:103590007047F0B50C461546002200210026078C26
:1035A0004FF6EF7C07EA0C070784028B018C4FF67D
:1035B000FF7707EA041640F6FF473A404FF6FF77D9
:1035C00007EA03373A434FF6FF7707EA05273A43FE
:1035D0008F4FB8420ED08F4FB8420BD0B0F1804F12
:1035E00008D08D4FB84205D08C4FB84202D08C4FD6
:1035F000B84206D14FF6DF77394046F0100739431D
:1036000005E04FF65F77394044F0100739430283F5
:103610000184F0BD028B4FF6F3731A400283028BD4
:103620000A4302837047F0B50C461546002200217C
:10363000068C4FF6FE773E400684028B018C4FF6D7
:103640000C7632407E1C06EA03162E433243704E3F
:10365000B0420ED06F4EB0420BD0B0F1804F08D0C8
:103660006D4EB04205D06D4EB04202D06C4EB042AD
:1036700006D14FF6FD76314044F00106314305E0B6
:103680004FF6F576314044F0010631430283018460
:10369000F0BD70B505460C465D4885420ED05D48CC
:1036A00085420BD0B5F1804F08D05B48854205D0EC
:1036B0005A48854202D05A48854200D100E000BFF6
:1036C000208850B92389A28861882846FFF7ABFF7C
:1036D000E1882846FFF79EFF25E0208804280AD1CC
:1036E0002389A28861882846FFF753FFE18828468E
:1036F000FFF742FF17E0208808280AD12389A28813
:1037000061882846FFF7FBFEE1882846FFF7EEFEBA
:1037100009E02389A28861882846FFF7A6FEE18890
:103720002846FFF795FE70BD2DE9F04105460C4691
:1037300000260127608808B9022600E00026A0883C
:10374000012801D1022700E001272088A0B92389A0
:10375000A28861882846FFF766FFE1882846FFF7C0
:1037600059FF23893A4631462846FFF712FFE18880
:103770002846FFF701FF13E02389A28861882846C5
:10378000FFF707FFE1882846FFF7F6FE23893A4650
:1037900031462846FFF747FFE1882846FFF73AFF02
:1037A000BDE8F0810A884B881A438B881A43CB887E
:1037B0001A430B891A434B891A438B891A43A0F881
:1037C000442070474FF6FF71818000210180C18045
:1037D0004180017270470021018041808180C18059
:1037E000018141818181C181704700210180418037
:1037F000012181800021C180018170470021018069
:1038000041808180C18001814181818170470000B8
:10381000002C01400034014000040040000800403A
:10382000000C004021B1028842F00102028004E055
:1038300002884FF6FE731A400280704731B1B0F82B
:10384000442042F40042A0F8442005E0B0F84420AF
:10385000C2F30E02A0F8442070471AB183890B43CB
:10386000838102E083898B43838170478182704723
:1038700041EA0203A0F8483070471AB183890B432C
:10388000838102E083898B438381704701894FF6EE
:10389000F8721140018170470A46002101894FF6F4
:1038A0008F73194011430181704730B504460D46AE
:1038B00029462046FFF7F0FF208940F007002081CD
:1038C00030BD2DE9F04104460D4616461F46602DD9
:1038D00006D13B46012231462046FFF75AFE05E05D
:1038E0003B46012231462046FFF79DFE29462046F1
:1038F000FFF7D2FF208940F007002081BDE8F0816A
:1039000030B50C4600210189C9B24FF6FF7505EAB2
:103910000325154325432943018130BD2DE9F0419D
:1039200005460E4617469846002443463A46314619
:103930002846FFF7E5FF2C894FF6F870044044F065
:1039400007044FF68F70044044F070042C81BDE8EA
:10395000F081F0B504460D4616461F463B463246FA
:1039600029462046FFF7CCFF208940F48040208183
:10397000F0BD0185828270470A46002101884FF61A
:103980008F731940114301807047F0B50C461546FE
:103990001E460021002200230189028B038C4FF672
:1039A000F877394021434FF6FC473A4040F201177F
:1039B0003A434FF6DD773B404FF6FF7707EA0617AD
:1039C0002F433B43018102830384F0BD0A4600215B
:1039D000018B4FF68F7319401143018370470A46DC
:1039E0000021018B48F6FF7319404FF6FF7303EA7D
:1039F00002231943018370470A460021818B4FF649
:103A00008F7319401143818370470A460021818BCF
:103A100048F6FF7319404FF6FF7303EA0223194378
:103A20008183704721B1028842F08002028004E065
:103A300002884FF67F731A400280704721B1828856
:103A400042F00402828004E082884FF6FB731A4041
:103A50008280704721B1828842F00802828004E0AF
:103A600082884FF6F7731A408280704721B18288AE
:103A700042F00102828004E082884FF6FE731A4011
:103A8000828070470A460021018B4FF6F773194078
:103A90001143018370470A460021018B4FF2FF73E7
:103AA00019404FF6FF7303EA02231943018370475D
:103AB0000A460021818B4FF6F77319401143818329
:103AC00070470A460021818B4FF2FF7319404FF671
:103AD000FF7303EA02231943818370470A460021DA
:103AE000018B4FF6FB7319401143018370470A465F
:103AF0000021018B4FF6FF3319404FF6FF7303EAA5
:103B000002231943018370470A460021818B4FF637
:103B1000FB7319401143818370470A460021818B52
:103B20004FF6FF3319404FF6FF7303EA02231943A0
:103B3000818370470A460021018B4FF67F7319403D
:103B40001143018370470A460021018BC1F30E0126
:103B50004FF6FF7303EA02231943018370470A46B5
:103B60000021818B4FF67F73194011438183704789
:103B70000A460021818BC1F30E014FF6FF7303EA61
:103B800002231943818370470A460021018C4FF6B6
:103B9000FD7319401143018470470A460021018CCE
:103BA0004FF6F77319401143018470470A4600210C
:103BB000018C4FF6DF7319404FF6FF7303EA0213CF
:103BC0001943018470470A460021018C4FF67F7328
:103BD00019404FF6FF7303EA02131943018470473B
:103BE0000A460021018C4FF6FF5319404FF6FF7330
:103BF00003EA02231943018470470A460021018C1D
:103C00004FF2FF7319404FF6FF7303EA0223194383
:103C1000018470470A460021018C4DF6FF7319405C
:103C20004FF6FF7303EA023319430184704730B53E
:103C3000002301248C40A3B2048C9C430484048C94
:103C400002FA01F5ADB22C43048430BD30B5002337
:103C500004248C40A3B2048C9C430484048C02FA98
:103C600001F5ADB22C43048430BD70B5034600208D
:103C700000241846183001258D40ACB21D8CA54398
:103C80001D8409B1082909D100EB6100056825F000
:103C9000700505600568154305600EE00D1FC5F34E
:103CA0004E052844056825F4E045056005684FF693
:103CB000FF7606EA02263543056070BD21B1028811
:103CC00042F00202028004E002884FF6FD731A40BF
:103CD0000280704721B1028842F00402028004E0B1
:103CE00002884FF6FB731A400280704721B1828828
:103CF00042F08002828004E082884FF67F731A408F
:103D00008280704702884FF6F7731A40028002885B
:103D10000A430280704782884FF68F731A40828070
:103D200082880A438280704702894FF6F8731A40EE
:103D3000028102890A430281704702894FF67F732C
:103D40001A40028102890A430281704781847047C8
:103D500081857047818670470187704781877047EA
:103D6000A0F84010704702884FF6FF431A400280C7
:103D700002880A43028070470146888E70470146D8
:103D8000088F70470146888F70470146B1F84000A0
:103D900070470146888C70470146088D704702467F
:103DA0000020138A0B400BB1012000E00020704777
:103DB000CA430282704730B5024600200023002427
:103DC000158A05EA0103958905EA010413B10CB1CE
:103DD000012000E0002030BDCA430282704700008D
:103DE00010B50446FB48844209D101218803FEF73F
:103DF00019FF00214FF48040FEF714FF32E0F6482F
:103E0000844209D101214804FEF719FF00214FF433
:103E10000030FEF714FF25E0F048844209D101216B
:103E20008804FEF70CFF00214FF48020FEF707FF07
:103E300018E0EB48844209D10121C804FEF7FFFED7
:103E400000214FF40020FEF7FAFE0BE0E548844223
:103E500008D101210805FEF7F2FE00214FF4801081
:103E6000FEF7EDFE10BD2DE9F04786B005460E4683
:103E70000024A24600BFA1460027B08900B100BFC0
:103E80002F462C8A4CF6FF700440F08804432C82A5
:103E9000AC894EF6F3100440B0883189084371892B
:103EA00008430443AC81AC8A4FF6FF400440B0891C
:103EB0000443AC8201A8FEF72EFEC648874202D119
:103EC000DDF810A001E0DDF80CA0A88900F40040A6
:103ED00040B10AEBCA0000EB0A1031684900B0FBA0
:103EE000F1F807E00AEBCA0000EB0A10316889001C
:103EF000B0FBF1F86420B8FBF0F004012009642164
:103F000001FB1089A88900F4004040B1322000EB89
:103F1000C900B0FBF1F000F00700044308E03220D4
:103F200000EB09106421B0FBF1F000F00F00044336
:103F30002C8106B0BDE8F0874FF4165101600021D6
:103F40008180C18001810C214181002181817047E4
:103F500010B502460020108A4FF2FF0318400B886C
:103F60004C8823438C882343CC88234318431082F6
:103F700010BD0021018041808180C180704721B146
:103F8000828942F40052828104E082894DF6FF73F7
:103F90001A4082817047F0B50346002400260025B0
:103FA000002040F66A17B94200D100BF1846C1F39D
:103FB000421401F01F06012707FA06F5012C01D172
:103FC0000C3004E0022C01D1103000E014301AB1A2
:103FD00007682F43076002E00768AF430760F0BD42
:103FE0001AB1838A0B43838202E0838A8B438382E4
:103FF0007047028A4FF6F0731A400282028A0A431F
:104000000282704782894FF2FF731A40828182894F
:104010000A438281704721B1828942F00202828183
:1040200004E082894FF6FD731A4082817047028A4C
:104030004FF6DF731A400282028A0A4302827047F7
:1040400021B1028A42F48042028204E0028A4BF6E5
:10405000FF731A4002827047C1F3080282807047E2
:1040600001468888C0F308007047818941F001014A
:1040700081817047028BD2B20283028B42EA012215
:1040800002837047028B02F47F420283028B0A4351
:104090000283704721B1828A42F02002828204E0CA
:1040A000828A4FF6DF731A408282704721B1828A7A
:1040B00042F01002828204E0828A4FF6EF731A40C7
:1040C0008282704721B1828A42F00802828204E033
:1040D000828A4FF6F7731A408282704721B1828933
:1040E00042F40042828103E08289C2F30E0282819F
:1040F000704721B1828A42F40062828204E0828A9F
:104100004FF2FF731A4082827047828A4FF6FB7328
:104110001A408282828A0A438282704721B1828A4F
:1041200042F00202828204E0828A4FF6FD731A4056
:104130008282704702460020B1F5007F00D100BFA7
:1041400013880B400BB1012000E00020704701F400
:104150000072B2F5007F00D100BFCA4302807047F1
:1041600070B50246002400230025002040F66A16A0
:10417000B14200D100BFC1F3421501F01F03012677
:1041800006FA03F3012D02D19689334006E0022D91
:1041900002D1168A334001E0968A33400C12012680
:1041A00006FA04F41688344013B10CB1012000E083
:1041B000002070BD10B50022002340F66A14A14211
:1041C00000D100BF0A1201249440A3B2DC43048052
:1041D00010BD00000038014000440040004800408D
:1041E000004C004000500040094880470948004703
:1041F000FEE7FEE7FEE7FEE7FEE7FEE7FEE7FEE797
:10420000FEE7FEE704480549054A064B70470000F3
:1042100007430008ED00000870110020701700200F
:1042200070130020701300200CB500200190009046
:104230006C48006840F480306A49086000BF6948F3
:10424000006800F4003000900198401C0190009834
:1042500018B90198B0F5A06FF1D16248006800F478
:10426000003010B10120009001E000200090009883
:10427000012843D15C48006840F010005A490860AA
:104280000846006820F0030008600846006840F017
:104290000200086053484068524948600846406838
:1042A00048600846406840F48060486008464068BE
:1042B00020F47C1048600846406840F4E8104860EC
:1042C0000846006840F08070086000BF45480068FC
:1042D00000F000700028F9D04248406820F0030048
:1042E000404948600846406840F00200486000BF0E
:1042F0003C48406800F00C000828F9D10CBD10B50E
:10430000FFF792FF10BD10B53648006840F001007D
:1043100034490860084640683449084031494860DB
:1043200008460068324908402E490860084600687F
:1043300020F4802008600846406820F4FE004860B1
:104340004FF41F008860FFF7DAFF4FF00060294943
:10435000086010BD10B5002100200022214B5B68D1
:1043600003F00C0121B1042906D0082928D107E067
:10437000214B224C236027E01F4B204C236023E07D
:10438000184B5B6803F47010164B5B6803F48032C3
:10439000022303EB904022B9194B4343174C23608F
:1043A0000DE0104B5B6803F4003323B1144B43431F
:1043B000124C236003E0104B4343104C236003E096
:1043C0000D4B0E4C236000BF00BF064B5B68C3F370
:1043D00003130C4CE15C094B1B68CB40074C23607A
:1043E00010BD000000100240002002400000FFF855
:1043F000FFFFF6FE08ED00E000127A0080000020CA
:1044000000093D0084000020704700000FB40449FB
:1044100010B503AA029800F04FF910BC5DF814FB28
:10442000000000202DE9F04106460024106875299F
:10443000314615A510D0AFF30080002802DA4042C3
:1044400012A507E031688A0701D511A502E04907E6
:1044500004D510A5012401E0AFF3008000210A2358
:1044600006F1240707E0B0FBF3F203FB1200303043
:1044700078541046491C0028F5D123462A46304678
:10448000BDE8F04100F0BEB8000000002D000000C3
:104490002B0000002000000070B504460D462146A8
:1044A0001068AFF300802188090502D50F4A7A44CD
:1044B00002E00E4A7A440E32002104F1240305E0A2
:1044C00000F00F060009965D5E54491C0028F7D1E4
:1044D00020780023000704D5702D02D009B10223F3
:1044E00011322046BDE8704000F08CB8C8020000D0
:1044F0002DE9F0474FF0000A89460446C0F820A095
:104500002046E1688847002876D0252806D0D4E9DF
:1045100001219047206A401C2062F1E7E1682046B3
:1045200000258847C4F81CA006460027C4F818A038
:104530002A2E09D0304600F019F938B304EB870869
:10454000303EC8F8186019E059F8041B204604EB07
:1045500087029161E1688847012F064618D1E0691A
:10456000002820DA25F020051DE0D8F8180000EB1F
:10457000800006EB40003038C8F818002046E1689B
:104580008847064600F0F2F80028EED1012F0AD045
:104590002E2E08D12046E16888477F1C0646022F50
:1045A00045F02005C4DBA069002803DA404245F04D
:1045B0000105A061E80701D025F01005B6B1A6F10C
:1045C0004100192802D8203645F400654A46314694
:1045D000204625604D46FBF7C3FD58B1012806D0A3
:1045E000ED1D25F0070000F1080989E704E005F159
:1045F000040985E730468AE7206ABDE8F0877047FE
:10460000704770472DE9F0470D469946924604469B
:1046100000F124080168880604D5E06921F0100142
:10462000216000E00120A84201DD471B00E00027D7
:10463000A1697A1902EB0900081AA0612078C00666
:1046400002D42046AFF30080002608E0D4E901211F
:104650001AF806009047206A401C761C20624E45DE
:10466000F4DB2078C0060AD52046AFF3008006E0D0
:10467000D4E9012130209047206A401C2062381E76
:10468000A7F10107F4DC07E0D4E9012118F80500DF
:104690009047206A401C2062281EA5F10105F3DC2A
:1046A0002046AFF300802078000602D50220BDE846
:1046B000F0870120FBE70000074B70B50D467B44F7
:1046C00000F011F804462846FCF70CF810B14FF042
:1046D000FF3070BD204670BD0BC0FFFF01694A1C52
:1046E00002610878704700B58FB0CDE90131002133
:1046F000059105497944CDE9031011466846FFF755
:10470000F7FE0FB000BD0000E5FFFFFF754600F0AB
:1047100029F8AE4605006946534620F00700854655
:1047200018B020B5FFF76EFDBDE820404FF0000641
:104730004FF000074FF000084FF0000B21F0070189
:10474000AC46ACE8C009ACE8C009ACE8C009ACE8CC
:10475000C0098D4670470446AFF300802046FBF742
:1047600014FD0000004870470C11002030380A2862
:1047700001D2012070470020704730313233343588
:10478000363738394142434445464030580030318D
:1047900032333435363738396162636465664030A8
:1047A00078000000C44700080000002094000000CA
:1047B000280100085848000894000020DC1600007A
:1047C000440100080000000000000000000000009C
:1047D0000000000008DC010203C0A80104C0A80119
:1047E00001FFFFFF000202020202020202020202B5
:1047F0000202020202C0A8010300B80B0000000080
:1048000000000000000000000000000000000000A8
:104810000000000000000000000000000000000098
:104820000000000000000000000000000000000088
:104830000000010203040102030406070809020440
:104840000608000000A24A0400000000000000006A
:08485000010203040607080938
:04000005080041E9C5
:00000001FF
